:020000040000FA
:100000000C9463000C948B000C948B000C948B006C
:100010000C948B000C948B000C948B000C94DE04DD
:100020000C948B000C948B000C948B000C948B0024
:100030000C948B000C948B000C948B000C948B0014
:100040000C94B8050C948B000C9486050C946005F8
:100050000C948B000C948B000C948B000C948B00F4
:100060000C948B000C948B000000000024002700EF
:100070002A000000000023002600290000000008DC
:10008000000201000003040700000000000000005F
:10009000010204081020408001020408102001021F
:1000A0000408102000000000250028002B00040494
:1000B0000404040404040202020202020303030310
:1000C00003030200020611241FBECFEFD8E0DEBFFB
:1000D000CDBF11E0A0E0B1E0E8E0F2E102C00590A0
:1000E0000D92A035B107D9F722E0A0E5B1E001C03B
:1000F0001D92AA37B207E1F710E0C3E6D0E004C0D2
:100100002197FE010E94FC08C236D107C9F70E9460
:100110008F060C9402090C94000096E0899FD00190
:100120001124A55FBD4F90967C936E935F9791E0ED
:1001300091969C939197E0917802F0917902909139
:100140007702992339F0309751F0811108C08091DE
:1001500027020994309719F05C968C91FACF089594
:10016000CF92DF92EF92FF920F931F9396E0899FB9
:10017000F0011124E55FFD4F11A2278D30A1213040
:10018000310551F178F02230310509F451C02330A6
:10019000310509F452C01F910F91FF90EF90DF904D
:1001A000CF9008956623B9F361E070E00E948D005E
:1001B0002FB7F89480916A0190916B01A0916C0126
:1001C000B0916D012FBF8093630290936402A0935E
:1001D0006502B0936602DFCF9FB7F894C0906A01C2
:1001E000D0906B01E0906C01F0906D019FBF009189
:1001F0006302109164022091650230916602C01A78
:10020000D10AE20AF30A009175021091760230E0F9
:1002100020E00C151D052E053F0550F462E070E04E
:100220001F910F91FF90EF90DF90CF900C948D0075
:100230006111B1CF63E070E0F3CF70E060E0F0CF28
:10024000AF92BF92CF92DF92EF92FF920F931F93E4
:10025000CF93DF936C017B018B01040F151FEB0122
:100260005E01AE18BF08C017D10759F06991D601D9
:10027000ED91FC910190F081E02DC6010995892B4B
:1002800079F7C501DF91CF911F910F91FF90EF900A
:10029000DF90CF90BF90AF900895FC01538D448DB7
:1002A000252F30E0842F90E0821B930B541710F021
:1002B000CF96089501970895FC01918D828D98172E
:1002C00061F0A28DAE0FBF2FB11D5D968C91928D06
:1002D0009F5F9F73928F90E008958FEF9FEF089537
:1002E000FC01918D828D981731F0828DE80FF11D00
:1002F000858D90E008958FEF9FEF0895FC01918D1B
:10030000228D892F90E0805C9F4F821B91098F7313
:10031000992708958EE691E00E947E0121E0892BC5
:1003200009F420E0822F089580E090E0892B29F0E5
:100330000E948A0181110C9400000895FC01A48D93
:10034000A80FB92FB11DA35ABF4F2C91848D90E0F7
:1003500001968F739927848FA689B7892C93A089DA
:10036000B1898C91837080648C93938D848D981364
:1003700006C00288F389E02D80818F7D80830895F7
:10038000EF92FF920F931F93CF93DF93EC0181E0E5
:10039000888F9B8D8C8D98131AC0E889F98980818C
:1003A00085FF15C09FB7F894EE89FF896083E889BF
:1003B000F98980818370806480839FBF81E090E0B1
:1003C000DF91CF911F910F91FF90EF900895F62E3E
:1003D0000B8D10E00F5F1F4F0F731127E02E8C8DD8
:1003E0008E110CC00FB607FCFACFE889F98980811D
:1003F00085FFF5CFCE010E949E01F1CFEB8DEC0F72
:10040000FD2FF11DE35AFF4FF0829FB7F8940B8F39
:10041000EA89FB8980818062CFCFCF93DF93EC01A3
:10042000888D8823B9F0AA89BB89E889F9898C91DC
:1004300085FD03C0808186FD0DC00FB607FCF7CF98
:100440008C9185FFF2CF808185FFEDCFCE010E9498
:100450009E01E9CFDF91CF910895833081F028F498
:10046000813099F08230A9F008958730A9F0883062
:10047000C9F08430B1F4809180008F7D03C08091F9
:1004800080008F7780938000089584B58F7784BD36
:10049000089584B58F7DFBCF8091B0008F778093D6
:1004A000B00008958091B0008F7DF9CFCF93DF9396
:1004B000282F30E0F901E458FF4F8491F901E0570B
:1004C000FF4FD491F901E255FF4FC491CC23A1F025
:1004D00081110E942D02EC2FF0E0EE0FFF1FEE586D
:1004E000FF4FA591B491EC91ED2381E090E009F4E8
:1004F00080E0DF91CF91089580E090E0FACF862FE1
:100500000C9456021F93CF93DF93282F30E0F9010C
:10051000E458FF4F8491F901E057FF4FD491F9015E
:10052000E255FF4FC491CC23A9F0162F81110E94F0
:100530002D02EC2FF0E0EE0FFF1FEC55FF4FA591C1
:10054000B4918FB7F894EC91111108C0D095DE23C7
:10055000DC938FBFDF91CF911F910895DE2BF8CFF1
:10056000862F642F0C948202CF93DF9390E0FC01DE
:10057000E057FF4F249182559F4FFC0184918823BF
:10058000C9F090E0880F991FFC01E859FF4FA59131
:10059000B491FC01EC55FF4FC591D49161110DC090
:1005A0009FB7F8948C91209582238C93888128237F
:1005B00028839FBFDF91CF910895623051F49FB798
:1005C000F8943C91822F809583238C93E8812E2B85
:1005D000EFCF8FB7F894EC912E2B2C938FBFEACFEF
:1005E000862F642F0C94B4026F927F928F929F9209
:1005F000AF92BF92CF92DF92EF92FF920F931F9331
:10060000CF93DF9381E0809377028FB7F894409186
:100610006A0150916B0160916C0170916D018FBF07
:100620008091670290916802A0916902B0916A027C
:10063000481B590B6A0B7B0B8091730290917402DB
:10064000B0E0A0E084179507A607B70708F01DC122
:10065000C0E080917102C81760F4E0916D02F091E2
:100660006E02EC0FF11D62E080810E94B402CF5F48
:10067000F0CF712C812C912C5401839480917202C3
:10068000781608F05FC0072D10E0E0916F02F0913E
:100690007002E00FF11F61E080810E94B402E091DE
:1006A0006F02F0917002E00FF11F60E080810E9404
:1006B0008202D501C401072C04C0880F991FAA1F0C
:1006C000BB1F0A94D2F76C017C01E094F094612C7A
:1006D000809171026816F8F4C62DD0E0E0916D02A9
:1006E000F0916E02EC0FFD1F80810E94560224964D
:1006F000CC0FDD1FC55FDD4F892B41F488819981C7
:100700008C299D29998388836394E2CF888199817C
:100710008E219F21F7CFE0916F02F0917002E00FE0
:10072000F11F61E080810E94820280916F029091AE
:100730007002080F191F60E0F80180810E94B40266
:1007400073949CCFCBE0D2E0FE018FEF9FEF278D1B
:1007500030A1232B21F4148E968F858F11A236960B
:1007600022E0E734F20799F7F12C96E0D92E809138
:100770007102F81608F050C0E12C0F2D10E0000FA8
:10078000111F0D5E1D4F20917202E21608F042C04B
:10079000F801608171810E2C02C0769567950A94EC
:1007A000E2F7F29E900111242E0D311DEBE0F2E0F4
:1007B00080E0458D568D2417350709F46AC08F5F98
:1007C00036968A30B1F760FF23C0EBE0F2E090E0AC
:1007D00080E0448D411117C0E0916B02F0916C02F2
:1007E000E20FF31F4081D89EF001D99EF00D112435
:1007F000E55FFD4F448F368F258F10A2178E61E085
:100800000E94B00005C0019636968A30910509F71E
:10081000E394B9CFF394ABCF80E099A19111892FE4
:100820002696F2E0C734DF07C1F79FB7F8944091EE
:100830006A0150916B0160916C0170916D019FBFD5
:1008400040936702509368026093690270936A0252
:100850008823D9F080912C028823B9F080912A0254
:1008600090912B02019789F480912702DF91CF911B
:100870001F910F91FF90EF90DF90CF90BF90AF90BE
:100880009F908F907F906F9008951092770280E0F4
:10089000EDCF6170B5CF3FB7F89480915101909141
:1008A0005201A0915301B091540126B5A89B05C0F7
:1008B0002F3F19F00196A11DB11D3FBFBA2FA92FDF
:1008C000982F8827BC01CD01620F711D811D911DDC
:1008D00042E0660F771F881F991F4A95D1F7089548
:1008E0008F929F92AF92BF92CF92DF92EF92FF9240
:1008F0006B017C010E944B044B015C01C114D104CB
:10090000E104F104B9F00E944B04681979098A09DD
:100910009B09683E73408105910580F321E0C21A6E
:10092000D108E108F10888EE880E83E0981EA11C2A
:10093000B11CE4CFFF90EF90DF90CF90BF90AF90CD
:100940009F908F900895CF92DF92EF92FF926C016B
:1009500061E082E00E9482020D2C000CEE08FF088C
:10096000C701B6010E94700460E082E00E9482022A
:10097000C701B601FF90EF90DF90CF900C94700408
:10098000FC0101900020E9F73197AF01481B590B9A
:10099000BC018EE691E00C942001CF93DF93682F89
:1009A0008EE691E00E94C001EC0185E391E00E9497
:1009B000C0048C0F9D1FDF91CF9108951F920F925D
:1009C0000FB60F9211242F933F934F935F936F9322
:1009D0007F938F939F93AF93BF93EF93FF938091F8
:1009E0005A0190915B01A0915C01B0915D01892B4E
:1009F0008A2B8B2BD1F190915501E0915601F0910A
:100A0000570180818927808380915A0190915B01F1
:100A1000A0915C01B0915D01181619061A061B061B
:100A20009CF480915A0190915B01A0915C01B0917E
:100A30005D010197A109B10980935A0190935B016F
:100A4000A0935C01B0935D01FF91EF91BF91AF91D5
:100A50009F918F917F916F915F914F913F912F91D6
:100A60000F900FBE0F901F90189580910001E2EC3F
:100A7000F0E0E4919FEF90930001E13051F030F00D
:100A8000E23069F060E00E948202DECF10926E00D8
:100A9000F9CF90916F009D7F90936F00F3CF90916D
:100AA00070009D7F9093700091E09093B0009091C2
:100AB000B100987F94609093B1001092B300E2CFA0
:100AC0001F920F920FB60F9211242F933F934F93C3
:100AD0005F936F937F938F939F93AF93BF93EF93A6
:100AE000FF938EE691E00E949E01FF91EF91BF91EE
:100AF000AF919F918F917F916F915F914F913F91B6
:100B00002F910F900FBE0F901F9018951F920F926C
:100B10000FB60F9211242F938F939F93EF93FF9310
:100B2000E0917E01F0917F018081E0918401F0915C
:100B3000850182FD1BC09081809187018F5F8F733B
:100B400020918801821741F0E0918701F0E0E2599D
:100B5000FE4F958F80938701FF91EF919F918F9129
:100B60002F910F900FBE0F901F9018958081F4CF9A
:100B70001F920F920FB60F9211242F933F938F93D2
:100B80009F93AF93BF9380916A0190916B01A09165
:100B90006C01B0916D013091500123E0230F2D378E
:100BA00058F50196A11DB11D2093500180936A0153
:100BB00090936B01A0936C01B0936D0180915101F2
:100BC00090915201A0915301B09154010196A11D41
:100BD000B11D8093510190935201A0935301B093A2
:100BE0005401BF91AF919F918F913F912F910F90A1
:100BF0000FBE0F901F90189526E8230F0296A11D97
:100C0000B11DD2CF109271011092700188EE93E065
:100C1000A0E0B0E08093720190937301A0937401FF
:100C2000B09375018DE191E090936F0180936E0117
:100C300085EC90E090937B0180937A0184EC90E0C6
:100C400090937D0180937C0180EC90E090937F01F4
:100C500080937E0181EC90E09093810180938001EC
:100C600082EC90E0909383018093820186EC90E087
:100C700090938501809384011092870110928801DE
:100C80001092890110928A0110920D0210921102A5
:100C900010921002109212028FE291E090930C02D7
:100CA00080930B02E7E2F2E0108214821382158235
:100CB000369682E0E336F807B9F785E091E0909345
:100CC0006E0280936D0281E091E0909370028093B8
:100CD0006F0284E0809371028093720289E091E058
:100CE00090936C0280936B028AE090E09093740280
:100CF0008093730284EF91E0909376028093750263
:100D00001092790210927802109267021092680293
:100D10001092690210926A02109277020895CF939E
:100D2000DF93CDB7DEB7A1970FB6F894DEBF0FBE45
:100D3000CDBF789484B5826084BD84B5816084BD64
:100D400085B5826085BD85B5816085BD80916E0069
:100D5000816080936E00109281008091810082609A
:100D600080938100809181008160809381008091D7
:100D700080008160809380008091B10084608093C6
:100D8000B1008091B00081608093B00080917A00C2
:100D9000846080937A0080917A00826080937A00E8
:100DA00080917A00816080937A0080917A008068D7
:100DB00080937A001092C10061E082E00E94B40248
:100DC00061E08DE00E94B40260E08DE00E9482024A
:100DD000E0917E01F0917F0182E08083E0917A01D1
:100DE000F0917B011082E0917C01F0917D018FEC0C
:100DF000808310928601E0918201F091830186E068
:100E00008083E0918001F091810180818061808305
:100E1000E0918001F0918101808188608083E09180
:100E20008001F0918101808180688083E091800160
:100E3000F091810180818F7D80834AE0842E912C06
:100E4000A12CB12C50E2C52E56E0D52EE12CF12C70
:100E50003BEB232E30E0332E8091680190916901A5
:100E6000019721F480ED97E00E94A3040E94F40210
:100E7000182F882309F458C088E391E00E94C00429
:100E8000812F0E94CD04113409F041C00BE010E025
:100E900088EC90E00E94A30401501109C9F70E9458
:100EA000F402182F8823D9F380E491E00E94C00453
:100EB000812F0E94CD04193351F505E110E084E63D
:100EC00090E00E94A30401501109C9F70E94F402A6
:100ED000182F8823D9F388E491E00E94C004812F61
:100EE0000E94CD04123399F41092690110926801A6
:100EF00005E110E088EC90E00E94A3040150110984
:100F0000C9F760E573EC80E090E00E94700480E037
:100F100090E0892B09F4A0CF0E948A01882309F46C
:100F20009BCF0E94000094CF20E420937C0080910E
:100F30007A00806480937A0080917A0086FDFCCFED
:100F4000909178008091790089279827892790933C
:100F50006701809366012C01092E000C6608770852
:100F600097FF5CC06DE28EE691E00E94C0012227EF
:100F70003327A901241935094609570919A28E01F9
:100F80000F5D1F4FCA01B901A50194010E94DA0843
:100F9000605DF80162938F0121153105410551050E
:100FA00089F70115110519F0C8010E94C00485E3F5
:100FB00091E00E94C00480916601909167018A3897
:100FC00092400CF0A4CF809100018D3009F03CC01C
:100FD000E2ECF0E0149117FDD8C061E08DE00E94D2
:100FE000B402112309F4A2C0123009F0B3C08091F9
:100FF000B100887F85608093B1008EE98093B30053
:10100000C0925A01D0925B01E0925C01F0925D01C6
:1010100080917000826080937000B7C0A30192013C
:1010200019A28E010F5D1F4FCA01B901A5019401DC
:101030000E94DA08605DF80162938F012115310585
:101040004105510589F7ADCF8F3F09F09EC08DE076
:1010500080930001E2ECF0E014911F3F09F495C089
:10106000113021F150F0123009F43EC017FD8DC04F
:1010700061E08DE00E94B402B7CF14BC15BC84B50A
:10108000826084BD85B5816085BDF1018491E82FC2
:10109000F0E0EE0FFF1FEC55FF4F85919491EDE9C5
:1010A000F0E084918093590110E097CF1092800076
:1010B00010928100809181008860809381008091EE
:1010C0008100816080938100F1018491E82FF0E03C
:1010D000EE0FFF1FEC55FF4F85919491EDE9F0E085
:1010E00084918093580179CF1092B0001092B10092
:1010F0008091B00082608093B0008091B1008160E7
:101100008093B100F1018491E82FF0E0EE0FFF1F12
:10111000EC55FF4F85919491909357018093560120
:10112000EDE9F0E084918093550157CF85B5887F34
:10113000846085BD8EE487BDC0926201D092630158
:10114000E0926401F092650180916E00826080936C
:101150006E001BC0113031F580918100887F816065
:101160008093810087EB9FE49093890080938800AF
:10117000C0925E01D0925F01E0926001F092610145
:1011800080916F00826080936F0068EB7BE080E06D
:1011900090E00E947004E1E0F0E0F0936901E093D8
:1011A0006801B5CE123021F01111EFCF87EBC3CF1C
:1011B00087EB24CFA1E21A2EAA1BBB1BFD010DC099
:1011C000AA1FBB1FEE1FFF1FA217B307E407F507F7
:1011D00020F0A21BB30BE40BF50B661F771F881FD3
:1011E000991F1A9469F760957095809590959B0169
:1011F000AC01BD01CF010895EE0FFF1F0590F491E2
:10120000E02D0994F894FFCFFF08090A0B040506A6
:10121000073132334134353642373839432A3023A7
:101220004400000000C00120014D010D027E015C60
:1012300001700100000000F002B0027F020D0A0000
:101240007465636C613120007465636C61322000E9
:081250007465636C613320003A
:107E0000112484B714BE81FFF0D085E080938100F7
:107E100082E08093C00088E18093C10086E0809377
:107E2000C20080E18093C4008EE0C9D0259A86E02C
:107E300020E33CEF91E0309385002093840096BBD3
:107E4000B09BFECF1D9AA8958150A9F7CC24DD24C4
:107E500088248394B5E0AB2EA1E19A2EF3E0BF2EE7
:107E6000A2D0813461F49FD0082FAFD0023811F036
:107E7000013811F484E001C083E08DD089C08234E0
:107E800011F484E103C0853419F485E0A6D080C0E4
:107E9000853579F488D0E82EFF2485D0082F10E0AE
:107EA000102F00270E291F29000F111F8ED06801E7
:107EB0006FC0863521F484E090D080E0DECF843638
:107EC00009F040C070D06FD0082F6DD080E0C81688
:107ED00080E7D80618F4F601B7BEE895C0E0D1E017
:107EE00062D089930C17E1F7F0E0CF16F0E7DF06D8
:107EF00018F0F601B7BEE89568D007B600FCFDCFD4
:107F0000A601A0E0B1E02C9130E011968C91119780
:107F100090E0982F8827822B932B1296FA010C0160
:107F200087BEE89511244E5F5F4FF1E0A038BF0790
:107F300051F7F601A7BEE89507B600FCFDCF97BE46
:107F4000E89526C08437B1F42ED02DD0F82E2BD052
:107F50003CD0F601EF2C8F010F5F1F4F84911BD097
:107F6000EA94F801C1F70894C11CD11CFA94CF0C13
:107F7000D11C0EC0853739F428D08EE10CD085E9AC
:107F80000AD08FE07ACF813511F488E018D01DD067
:107F900080E101D065CF982F8091C00085FFFCCF94
:107FA0009093C60008958091C00087FFFCCF809118
:107FB000C00084FD01C0A8958091C6000895E0E648
:107FC000F0E098E1908380830895EDDF803219F02E
:107FD00088E0F5DFFFCF84E1DECF1F93182FE3DFCA
:107FE0001150E9F7F2DF1F91089580E0E8DFEE27F6
:047FF000FF270994CA
:027FFE00040479
:00000001FF
